{
  "contractName": "ERC165",
  "abi": [
    {
      "inputs": [],
      "payable": false,
      "stateMutability": "nonpayable",
      "type": "constructor"
    },
    {
      "constant": true,
      "inputs": [
        {
          "name": "interfaceId",
          "type": "bytes4"
        }
      ],
      "name": "supportsInterface",
      "outputs": [
        {
          "name": "",
          "type": "bool"
        }
      ],
      "payable": false,
      "stateMutability": "view",
      "type": "function"
    }
  ],
  "bytecode": "0x608060405234801561001057600080fd5b506100437f01ffc9a700000000000000000000000000000000000000000000000000000000640100000000610048810204565b6100b4565b7fffffffff00000000000000000000000000000000000000000000000000000000808216141561007757600080fd5b7fffffffff00000000000000000000000000000000000000000000000000000000166000908152602081905260409020805460ff19166001179055565b60eb806100c26000396000f300608060405260043610603e5763ffffffff7c010000000000000000000000000000000000000000000000000000000060003504166301ffc9a781146043575b600080fd5b348015604e57600080fd5b5060777bffffffffffffffffffffffffffffffffffffffffffffffffffffffff1960043516608b565b604080519115158252519081900360200190f35b7bffffffffffffffffffffffffffffffffffffffffffffffffffffffff191660009081526020819052604090205460ff16905600a165627a7a72305820c9d09c4dd5332e75943cb1af1bbfb2a61af87458ee3ef971eeeda3f1738298050029",
  "source": "pragma solidity ^0.4.24;\n\nimport \"./IERC165.sol\";\n\n\n/**\n * @title ERC165\n * @author Matt Condon (@shrugs)\n * @dev Implements ERC165 using a lookup table.\n */\ncontract ERC165 is IERC165 {\n\n  bytes4 private constant _InterfaceId_ERC165 = 0x01ffc9a7;\n  /**\n   * 0x01ffc9a7 ===\n   *   bytes4(keccak256('supportsInterface(bytes4)'))\n   */\n\n  /**\n   * @dev a mapping of interface id to whether or not it's supported\n   */\n  mapping(bytes4 => bool) internal _supportedInterfaces;\n\n  /**\n   * @dev A contract implementing SupportsInterfaceWithLookup\n   * implement ERC165 itself\n   */\n  constructor()\n    public\n  {\n    _registerInterface(_InterfaceId_ERC165);\n  }\n\n  /**\n   * @dev implement supportsInterface(bytes4) using a lookup table\n   */\n  function supportsInterface(bytes4 interfaceId)\n    external\n    view\n    returns (bool)\n  {\n    return _supportedInterfaces[interfaceId];\n  }\n\n  /**\n   * @dev private method for registering an interface\n   */\n  function _registerInterface(bytes4 interfaceId)\n    internal\n  {\n    require(interfaceId != 0xffffffff);\n    _supportedInterfaces[interfaceId] = true;\n  }\n}\n",
  "sourcePath": "openzeppelin-solidity/contracts/introspection/ERC165.sol",
  "compiler": {
    "name": "solc",
    "version": "0.4.24+commit.e67f0147.Emscripten.clang"
  },
  "schemaVersion": "2.0.1",
  "updatedAt": "2018-11-11T15:07:56.259Z"
}