{
  "contractName": "StarNotary",
  "abi": [
    {
      "constant": true,
      "inputs": [
        {
          "name": "interfaceId",
          "type": "bytes4"
        }
      ],
      "name": "supportsInterface",
      "outputs": [
        {
          "name": "",
          "type": "bool"
        }
      ],
      "payable": false,
      "stateMutability": "view",
      "type": "function"
    },
    {
      "constant": true,
      "inputs": [
        {
          "name": "",
          "type": "uint256"
        }
      ],
      "name": "starsForSale",
      "outputs": [
        {
          "name": "",
          "type": "uint256"
        }
      ],
      "payable": false,
      "stateMutability": "view",
      "type": "function"
    },
    {
      "constant": true,
      "inputs": [
        {
          "name": "tokenId",
          "type": "uint256"
        }
      ],
      "name": "getApproved",
      "outputs": [
        {
          "name": "",
          "type": "address"
        }
      ],
      "payable": false,
      "stateMutability": "view",
      "type": "function"
    },
    {
      "constant": false,
      "inputs": [
        {
          "name": "to",
          "type": "address"
        },
        {
          "name": "tokenId",
          "type": "uint256"
        }
      ],
      "name": "approve",
      "outputs": [],
      "payable": false,
      "stateMutability": "nonpayable",
      "type": "function"
    },
    {
      "constant": false,
      "inputs": [
        {
          "name": "from",
          "type": "address"
        },
        {
          "name": "to",
          "type": "address"
        },
        {
          "name": "tokenId",
          "type": "uint256"
        }
      ],
      "name": "transferFrom",
      "outputs": [],
      "payable": false,
      "stateMutability": "nonpayable",
      "type": "function"
    },
    {
      "constant": false,
      "inputs": [
        {
          "name": "from",
          "type": "address"
        },
        {
          "name": "to",
          "type": "address"
        },
        {
          "name": "tokenId",
          "type": "uint256"
        }
      ],
      "name": "safeTransferFrom",
      "outputs": [],
      "payable": false,
      "stateMutability": "nonpayable",
      "type": "function"
    },
    {
      "constant": true,
      "inputs": [
        {
          "name": "",
          "type": "bytes32"
        }
      ],
      "name": "notary",
      "outputs": [
        {
          "name": "",
          "type": "bool"
        }
      ],
      "payable": false,
      "stateMutability": "view",
      "type": "function"
    },
    {
      "constant": true,
      "inputs": [
        {
          "name": "tokenId",
          "type": "uint256"
        }
      ],
      "name": "ownerOf",
      "outputs": [
        {
          "name": "",
          "type": "address"
        }
      ],
      "payable": false,
      "stateMutability": "view",
      "type": "function"
    },
    {
      "constant": true,
      "inputs": [
        {
          "name": "owner",
          "type": "address"
        }
      ],
      "name": "balanceOf",
      "outputs": [
        {
          "name": "",
          "type": "uint256"
        }
      ],
      "payable": false,
      "stateMutability": "view",
      "type": "function"
    },
    {
      "constant": true,
      "inputs": [],
      "name": "starName",
      "outputs": [
        {
          "name": "",
          "type": "string"
        }
      ],
      "payable": false,
      "stateMutability": "view",
      "type": "function"
    },
    {
      "constant": false,
      "inputs": [
        {
          "name": "to",
          "type": "address"
        },
        {
          "name": "approved",
          "type": "bool"
        }
      ],
      "name": "setApprovalForAll",
      "outputs": [],
      "payable": false,
      "stateMutability": "nonpayable",
      "type": "function"
    },
    {
      "constant": true,
      "inputs": [],
      "name": "starOwner",
      "outputs": [
        {
          "name": "",
          "type": "string"
        }
      ],
      "payable": false,
      "stateMutability": "view",
      "type": "function"
    },
    {
      "constant": false,
      "inputs": [
        {
          "name": "from",
          "type": "address"
        },
        {
          "name": "to",
          "type": "address"
        },
        {
          "name": "tokenId",
          "type": "uint256"
        },
        {
          "name": "_data",
          "type": "bytes"
        }
      ],
      "name": "safeTransferFrom",
      "outputs": [],
      "payable": false,
      "stateMutability": "nonpayable",
      "type": "function"
    },
    {
      "constant": true,
      "inputs": [
        {
          "name": "owner",
          "type": "address"
        },
        {
          "name": "operator",
          "type": "address"
        }
      ],
      "name": "isApprovedForAll",
      "outputs": [
        {
          "name": "",
          "type": "bool"
        }
      ],
      "payable": false,
      "stateMutability": "view",
      "type": "function"
    },
    {
      "anonymous": false,
      "inputs": [
        {
          "indexed": true,
          "name": "from",
          "type": "address"
        },
        {
          "indexed": true,
          "name": "to",
          "type": "address"
        },
        {
          "indexed": true,
          "name": "tokenId",
          "type": "uint256"
        }
      ],
      "name": "Transfer",
      "type": "event"
    },
    {
      "anonymous": false,
      "inputs": [
        {
          "indexed": true,
          "name": "owner",
          "type": "address"
        },
        {
          "indexed": true,
          "name": "approved",
          "type": "address"
        },
        {
          "indexed": true,
          "name": "tokenId",
          "type": "uint256"
        }
      ],
      "name": "Approval",
      "type": "event"
    },
    {
      "anonymous": false,
      "inputs": [
        {
          "indexed": true,
          "name": "owner",
          "type": "address"
        },
        {
          "indexed": true,
          "name": "operator",
          "type": "address"
        },
        {
          "indexed": false,
          "name": "approved",
          "type": "bool"
        }
      ],
      "name": "ApprovalForAll",
      "type": "event"
    },
    {
      "constant": true,
      "inputs": [
        {
          "name": "_dec",
          "type": "string"
        },
        {
          "name": "_mag",
          "type": "string"
        },
        {
          "name": "_ra",
          "type": "string"
        }
      ],
      "name": "checkIfStarExist",
      "outputs": [
        {
          "name": "",
          "type": "bool"
        }
      ],
      "payable": false,
      "stateMutability": "view",
      "type": "function"
    },
    {
      "constant": false,
      "inputs": [
        {
          "name": "_name",
          "type": "string"
        },
        {
          "name": "_dec",
          "type": "string"
        },
        {
          "name": "_mag",
          "type": "string"
        },
        {
          "name": "_ra",
          "type": "string"
        },
        {
          "name": "_story",
          "type": "string"
        }
      ],
      "name": "createStar",
      "outputs": [],
      "payable": false,
      "stateMutability": "nonpayable",
      "type": "function"
    },
    {
      "constant": false,
      "inputs": [
        {
          "name": "_tokenId",
          "type": "uint256"
        },
        {
          "name": "_price",
          "type": "uint256"
        }
      ],
      "name": "putStarUpForSale",
      "outputs": [],
      "payable": false,
      "stateMutability": "nonpayable",
      "type": "function"
    },
    {
      "constant": false,
      "inputs": [
        {
          "name": "_tokenId",
          "type": "uint256"
        }
      ],
      "name": "mint",
      "outputs": [],
      "payable": false,
      "stateMutability": "nonpayable",
      "type": "function"
    },
    {
      "constant": false,
      "inputs": [
        {
          "name": "_tokenId",
          "type": "uint256"
        }
      ],
      "name": "buyStar",
      "outputs": [],
      "payable": true,
      "stateMutability": "payable",
      "type": "function"
    },
    {
      "constant": true,
      "inputs": [
        {
          "name": "_tokenId",
          "type": "uint256"
        }
      ],
      "name": "getStarSalePrice",
      "outputs": [
        {
          "name": "",
          "type": "uint256"
        }
      ],
      "payable": false,
      "stateMutability": "view",
      "type": "function"
    },
    {
      "constant": true,
      "inputs": [],
      "name": "allStarsForSale",
      "outputs": [
        {
          "name": "",
          "type": "uint256[]"
        }
      ],
      "payable": false,
      "stateMutability": "view",
      "type": "function"
    },
    {
      "constant": true,
      "inputs": [
        {
          "name": "_tokenId",
          "type": "uint256"
        }
      ],
      "name": "tokenIdToStarInfo",
      "outputs": [
        {
          "name": "",
          "type": "string"
        },
        {
          "name": "",
          "type": "string"
        },
        {
          "name": "",
          "type": "string"
        },
        {
          "name": "",
          "type": "string"
        },
        {
          "name": "",
          "type": "string"
        }
      ],
      "payable": false,
      "stateMutability": "view",
      "type": "function"
    }
  ],
  "bytecode": "0x60806040526100367f01ffc9a70000000000000000000000000000000000000000000000000000000064010000000061006d810204565b6100687f80ac58cd0000000000000000000000000000000000000000000000000000000064010000000061006d810204565b6100d9565b7fffffffff00000000000000000000000000000000000000000000000000000000808216141561009c57600080fd5b7fffffffff00000000000000000000000000000000000000000000000000000000166000908152602081905260409020805460ff19166001179055565b61237b80620000e96000396000f30060806040526004361061010e5763ffffffff60e060020a60003504166301ffc9a781146101135780630384153d1461015e5780630564b13014610233578063081812fc1461025d578063095ea7b3146102915780631967fd98146102b757806323b872dd146104df5780632f1c34ef14610509578063316a43611461051457806342842e0e1461052f5780634c736a5e146105595780635affc43c146105715780635f3ff33c146105d65780636352211e1461072757806370a082311461073f57806388d5896c14610760578063a0712d68146107ea578063a22cb46514610802578063a434c27214610828578063b88d4fde1461083d578063dc3b4552146108ac578063e985e9c5146108c4575b600080fd5b34801561011f57600080fd5b5061014a7bffffffffffffffffffffffffffffffffffffffffffffffffffffffff19600435166108eb565b604080519115158252519081900360200190f35b34801561016a57600080fd5b506040805160206004803580820135601f810184900484028501840190955284845261014a94369492936024939284019190819084018382808284375050604080516020601f89358b018035918201839004830284018301909452808352979a99988101979196509182019450925082915084018382808284375050604080516020601f89358b018035918201839004830284018301909452808352979a99988101979196509182019450925082915084018382808284375094975061091f9650505050505050565b34801561023f57600080fd5b5061024b600435610bb2565b60408051918252519081900360200190f35b34801561026957600080fd5b50610275600435610bc4565b60408051600160a060020a039092168252519081900360200190f35b34801561029d57600080fd5b506102b5600160a060020a0360043516602435610bf6565b005b3480156102c357600080fd5b506102cf600435610cac565b60405180806020018060200180602001806020018060200186810386528b818151815260200191508051906020019080838360005b8381101561031c578181015183820152602001610304565b50505050905090810190601f1680156103495780820380516001836020036101000a031916815260200191505b5086810385528a5181528a516020918201918c019080838360005b8381101561037c578181015183820152602001610364565b50505050905090810190601f1680156103a95780820380516001836020036101000a031916815260200191505b5086810384528951815289516020918201918b019080838360005b838110156103dc5781810151838201526020016103c4565b50505050905090810190601f1680156104095780820380516001836020036101000a031916815260200191505b5086810383528851815288516020918201918a019080838360005b8381101561043c578181015183820152602001610424565b50505050905090810190601f1680156104695780820380516001836020036101000a031916815260200191505b50868103825287518152875160209182019189019080838360005b8381101561049c578181015183820152602001610484565b50505050905090810190601f1680156104c95780820380516001836020036101000a031916815260200191505b509a505050505050505050505060405180910390f35b3480156104eb57600080fd5b506102b5600160a060020a0360043581169060243516604435610ff5565b6102b5600435611083565b34801561052057600080fd5b506102b560043560243561127e565b34801561053b57600080fd5b506102b5600160a060020a03600435811690602435166044356113c5565b34801561056557600080fd5b5061014a6004356113e1565b34801561057d57600080fd5b506105866113f6565b60408051602080825283518183015283519192839290830191858101910280838360005b838110156105c25781810151838201526020016105aa565b505050509050019250505060405180910390f35b3480156105e257600080fd5b506040805160206004803580820135601f81018490048402850184019095528484526102b594369492936024939284019190819084018382808284375050604080516020601f89358b018035918201839004830284018301909452808352979a99988101979196509182019450925082915084018382808284375050604080516020601f89358b018035918201839004830284018301909452808352979a99988101979196509182019450925082915084018382808284375050604080516020601f89358b018035918201839004830284018301909452808352979a99988101979196509182019450925082915084018382808284375050604080516020601f89358b018035918201839004830284018301909452808352979a99988101979196509182019450925082915084018382808284375094975061152b9650505050505050565b34801561073357600080fd5b50610275600435611ae8565b34801561074b57600080fd5b5061024b600160a060020a0360043516611b12565b34801561076c57600080fd5b50610775611b45565b6040805160208082528351818301528351919283929083019185019080838360005b838110156107af578181015183820152602001610797565b50505050905090810190601f1680156107dc5780820380516001836020036101000a031916815260200191505b509250505060405180910390f35b3480156107f657600080fd5b506102b5600435611bd3565b34801561080e57600080fd5b506102b5600160a060020a03600435166024351515611be0565b34801561083457600080fd5b50610775611c64565b34801561084957600080fd5b50604080516020601f6064356004818101359283018490048402850184019095528184526102b594600160a060020a038135811695602480359092169560443595369560849401918190840183828082843750949750611cbf9650505050505050565b3480156108b857600080fd5b5061024b600435611ce1565b3480156108d057600080fd5b5061014a600160a060020a0360043581169060243516611cf3565b7bffffffffffffffffffffffffffffffffffffffffffffffffffffffff191660009081526020819052604090205460ff1690565b600061092a84611d21565b1515610980576040805160e560020a62461bcd02815260206004820152601e60248201527f496e76616c696420617267756d656e743a206465632072657175697265640000604482015290519081900360640190fd5b61098983611d21565b15156109df576040805160e560020a62461bcd02815260206004820152601e60248201527f496e76616c696420617267756d656e743a206d61672072657175697265640000604482015290519081900360640190fd5b6109e882611d21565b1515610a3e576040805160e560020a62461bcd02815260206004820152601d60248201527f496e76616c696420617267756d656e743a207261207265717569726564000000604482015290519081900360640190fd5b600860008585856040516020018084805190602001908083835b60208310610a775780518252601f199092019160209182019101610a58565b51815160209384036101000a600019018019909216911617905286519190930192860191508083835b60208310610abf5780518252601f199092019160209182019101610aa0565b51815160209384036101000a600019018019909216911617905285519190930192850191508083835b60208310610b075780518252601f199092019160209182019101610ae8565b6001836020036101000a03801982511681845116808217855250505050505090500193505050506040516020818303038152906040526040518082805190602001908083835b60208310610b6c5780518252601f199092019160209182019101610b4d565b51815160209384036101000a600019018019909216911617905260408051929094018290039091208652850195909552929092016000205460ff16979650505050505050565b60076020526000908152604090205481565b6000610bcf82611e52565b1515610bda57600080fd5b50600090815260026020526040902054600160a060020a031690565b6000610c0182611ae8565b9050600160a060020a038381169082161415610c1c57600080fd5b33600160a060020a0382161480610c385750610c388133611cf3565b1515610c4357600080fd5b600082815260026020526040808220805473ffffffffffffffffffffffffffffffffffffffff1916600160a060020a0387811691821790925591518593918516917f8c5be1e5ebec7d5bd14f71427d1e84f3dd0314c0f7b2291e5b200ac8c7c3b92591a4505050565b6060806060806060610cbc61227a565b6000878152600660209081526040918290208251815460026001821615610100026000190190911604601f8101849004909302810160e090810190945260c08101838152909391928492849190840182828015610d5a5780601f10610d2f57610100808354040283529160200191610d5a565b820191906000526020600020905b815481529060010190602001808311610d3d57829003601f168201915b50505050508152602001600182018054600181600116156101000203166002900480601f016020809104026020016040519081016040528092919081815260200182805460018160011615610100020316600290048015610dfc5780601f10610dd157610100808354040283529160200191610dfc565b820191906000526020600020905b815481529060010190602001808311610ddf57829003601f168201915b5050509183525050600282810180546040805160206001841615610100026000190190931694909404601f81018390048302850183019091528084529381019390830182828015610e8e5780601f10610e6357610100808354040283529160200191610e8e565b820191906000526020600020905b815481529060010190602001808311610e7157829003601f168201915b505050918352505060038201805460408051602060026001851615610100026000190190941693909304601f8101849004840282018401909252818152938201939291830182828015610f225780601f10610ef757610100808354040283529160200191610f22565b820191906000526020600020905b815481529060010190602001808311610f0557829003601f168201915b505050918352505060048201805460408051602060026001851615610100026000190190941693909304601f8101849004840282018401909252818152938201939291830182828015610fb65780601f10610f8b57610100808354040283529160200191610fb6565b820191906000526020600020905b815481529060010190602001808311610f9957829003601f168201915b50505091835250506005919091015460209182015281516080830151606084015192840151604090940151919b909a5091985091965090945092505050565b610fff3382611e6f565b151561100a57600080fd5b600160a060020a038216151561101f57600080fd5b6110298382611ece565b6110338382611f3f565b61103d8282611fd5565b8082600160a060020a031684600160a060020a03167fddf252ad1be2c89b69c2b068fc378daa952ba7f163c4a11628f55a4df523b3ef60405160405180910390a4505050565b600081815260076020526040812054819081106110ea576040805160e560020a62461bcd02815260206004820152600f60248201527f496e76616c696420746f6b656e49640000000000000000000000000000000000604482015290519081900360640190fd5b6007600084815260200190815260200160002054915030600160a060020a0316636352211e846040518263ffffffff1660e060020a02815260040180828152602001915050602060405180830381600087803b15801561114957600080fd5b505af115801561115d573d6000803e3d6000fd5b505050506040513d602081101561117357600080fd5b50519050348211156111f5576040805160e560020a62461bcd02815260206004820152602360248201527f496e73756666696369656e7420657468657220746f207075726368617365207360448201527f7461720000000000000000000000000000000000000000000000000000000000606482015290519081900360840190fd5b6111ff8184611f3f565b6112093384611fd5565b604051600160a060020a0382169083156108fc029084906000818181858888f1935050505015801561123f573d6000803e3d6000fd5b50813411156112795760405133903484900380156108fc02916000818181858888f19350505050158015611277573d6000803e3d6000fd5b505b505050565b33600160a060020a031630600160a060020a0316636352211e846040518263ffffffff1660e060020a02815260040180828152602001915050602060405180830381600087803b1580156112d157600080fd5b505af11580156112e5573d6000803e3d6000fd5b505050506040513d60208110156112fb57600080fd5b5051600160a060020a03161461135b576040805160e560020a62461bcd02815260206004820152601160248201527f496e76616c6964206f776e657273686970000000000000000000000000000000604482015290519081900360640190fd5b600081116113b3576040805160e560020a62461bcd02815260206004820152601260248201527f496e76616c696420737461722070726963650000000000000000000000000000604482015290519081900360640190fd5b60009182526007602052604090912055565b6112798383836020604051908101604052806000815250611cbf565b60086020526000908152604090205460ff1681565b6060600060015b60008181526006602090815260409182902060040180548351601f600260001961010060018616150201909316929092049182018490048402810184019094528084526114a093928301828280156114965780601f1061146b57610100808354040283529160200191611496565b820191906000526020600020905b81548152906001019060200180831161147957829003601f168201915b5050505050611d21565b156114d85760008181526007602052604081205411156114d0578154600181018355600083815260209020018190555b6001016113fd565b81546040805160208084028201810190925282815291849183018282801561151f57602002820191906000526020600020905b81548152602001906001019080831161150b575b50505050509250505090565b600061153561227a565b61153e87611d21565b15156115ba576040805160e560020a62461bcd02815260206004820152602160248201527f496e76616c696420617267756d656e743a20606e616d6560207265717569726560448201527f6400000000000000000000000000000000000000000000000000000000000000606482015290519081900360840190fd5b6115c386611d21565b1515611619576040805160e560020a62461bcd02815260206004820181905260248201527f496e76616c696420617267756d656e743a206064656360207265717569726564604482015290519081900360640190fd5b61162285611d21565b1515611678576040805160e560020a62461bcd02815260206004820181905260248201527f496e76616c696420617267756d656e743a20606d616760207265717569726564604482015290519081900360640190fd5b61168184611d21565b15156116d7576040805160e560020a62461bcd02815260206004820152601f60248201527f496e76616c696420617267756d656e743a206072616020726571756972656400604482015290519081900360640190fd5b6116e083611d21565b151561175c576040805160e560020a62461bcd02815260206004820152602260248201527f496e76616c696420617267756d656e743a206073746f7279602072657175697260448201527f6564000000000000000000000000000000000000000000000000000000000000606482015290519081900360840190fd5b8585856040516020018084805190602001908083835b602083106117915780518252601f199092019160209182019101611772565b51815160209384036101000a600019018019909216911617905286519190930192860191508083835b602083106117d95780518252601f1990920191602091820191016117ba565b51815160209384036101000a600019018019909216911617905285519190930192850191508083835b602083106118215780518252601f199092019160209182019101611802565b6001836020036101000a03801982511681845116808217855250505050505090500193505050506040516020818303038152906040526040518082805190602001908083835b602083106118865780518252601f199092019160209182019101611867565b51815160209384036101000a60001901801990921691161790526040805192909401829003822060008181526008835294909420548d5194985060ff161595508c945090810192839250908401908083835b602083106118f75780518252601f1990920191602091820191016118d8565b6001836020036101000a038019825116818451168082178552505050505050905001807f2068617320616c7265616479206265656e2063726561746564000000000000008152506019019150506040516020818303038152906040529015156119e15760405160e560020a62461bcd0281526004018080602001828103825283818151815260200191508051906020019080838360005b838110156119a657818101518382015260200161198e565b50505050905090810190601f1680156119d35780820380516001836020036101000a031916815260200191505b509250505060405180910390fd5b5050600b8054600101908190556040805160c0810182528881526020808201899052818301889052606082018790526080820186905260a0820185905260009384526006815291909220825180518493611a3f9284929101906122b4565b506020828101518051611a5892600185019201906122b4565b5060408201518051611a749160028401916020909101906122b4565b5060608201518051611a909160038401916020909101906122b4565b5060808201518051611aac9160048401916020909101906122b4565b5060a091909101516005909101556000828152600860205260409020805460ff19166001179055600b54611adf90611bd3565b50505050505050565b600081815260016020526040812054600160a060020a0316801515611b0c57600080fd5b92915050565b6000600160a060020a0382161515611b2957600080fd5b50600160a060020a031660009081526004602052604090205490565b6009805460408051602060026001851615610100026000190190941693909304601f81018490048402820184019092528181529291830182828015611bcb5780601f10611ba057610100808354040283529160200191611bcb565b820191906000526020600020905b815481529060010190602001808311611bae57829003601f168201915b505050505081565b611bdd3382612065565b50565b600160a060020a038216331415611bf657600080fd5b336000818152600560209081526040808320600160a060020a03871680855290835292819020805460ff1916861515908117909155815190815290519293927f17307eab39ab6107e8899845ad3d59bd9653f200f220920489ca2b5937696c31929181900390910190a35050565b600a805460408051602060026001851615610100026000190190941693909304601f81018490048402820184019092528181529291830182828015611bcb5780601f10611ba057610100808354040283529160200191611bcb565b611cca848484610ff5565b611cd6848484846120c0565b151561127757600080fd5b60009081526007602052604090205490565b600160a060020a03918216600090815260056020908152604080832093909416825291909152205460ff1690565b6000816040516020018082805190602001908083835b60208310611d565780518252601f199092019160209182019101611d37565b6001836020036101000a0380198251168184511680821785525050505050509050019150506040516020818303038152906040526040518082805190602001908083835b60208310611db95780518252601f199092019160209182019101611d9a565b51815160209384036101000a6000190180199092169116179052604080519290940182900382206000835290820193849052815190955090935082915081908082805b60208310611e1b5780518252601f199092019160209182019101611dfc565b5181516020939093036101000a60001901801990911692169190911790526040519201829003909120939093141595945050505050565b600090815260016020526040902054600160a060020a0316151590565b600080611e7b83611ae8565b905080600160a060020a031684600160a060020a03161480611eb6575083600160a060020a0316611eab84610bc4565b600160a060020a0316145b80611ec65750611ec68185611cf3565b949350505050565b81600160a060020a0316611ee182611ae8565b600160a060020a031614611ef457600080fd5b600081815260026020526040902054600160a060020a031615611f3b576000818152600260205260409020805473ffffffffffffffffffffffffffffffffffffffff191690555b5050565b81600160a060020a0316611f5282611ae8565b600160a060020a031614611f6557600080fd5b600160a060020a038216600090815260046020526040902054611f8f90600163ffffffff61224216565b600160a060020a03909216600090815260046020908152604080832094909455918152600190915220805473ffffffffffffffffffffffffffffffffffffffff19169055565b600081815260016020526040902054600160a060020a031615611ff757600080fd5b6000818152600160208181526040808420805473ffffffffffffffffffffffffffffffffffffffff1916600160a060020a038816908117909155845260049091529091205461204591612259565b600160a060020a0390921660009081526004602052604090209190915550565b600160a060020a038216151561207a57600080fd5b6120848282611fd5565b6040518190600160a060020a038416906000907fddf252ad1be2c89b69c2b068fc378daa952ba7f163c4a11628f55a4df523b3ef908290a45050565b6000806120d585600160a060020a0316612272565b15156120e45760019150612239565b6040517f150b7a020000000000000000000000000000000000000000000000000000000081523360048201818152600160a060020a03898116602485015260448401889052608060648501908152875160848601528751918a169463150b7a0294938c938b938b93909160a490910190602085019080838360005b8381101561217757818101518382015260200161215f565b50505050905090810190601f1680156121a45780820380516001836020036101000a031916815260200191505b5095505050505050602060405180830381600087803b1580156121c657600080fd5b505af11580156121da573d6000803e3d6000fd5b505050506040513d60208110156121f057600080fd5b50517bffffffffffffffffffffffffffffffffffffffffffffffffffffffff1981167f150b7a020000000000000000000000000000000000000000000000000000000014925090505b50949350505050565b6000808383111561225257600080fd5b5050900390565b60008282018381101561226b57600080fd5b9392505050565b6000903b1190565b60c0604051908101604052806060815260200160608152602001606081526020016060815260200160608152602001600080191681525090565b828054600181600116156101000203166002900490600052602060002090601f016020900481019282601f106122f557805160ff1916838001178555612322565b82800160010185558215612322579182015b82811115612322578251825591602001919060010190612307565b5061232e929150612332565b5090565b61234c91905b8082111561232e5760008155600101612338565b905600a165627a7a72305820913672a63262d01828626fa02869d26d127ed2b7f389aa0a9ebdf92c5dfed7f00029",
  "source": "pragma solidity ^0.4.23;\n\nimport \"openzeppelin-solidity/contracts/token/ERC721/ERC721.sol\";\n\ncontract StarNotary is ERC721 {\n    /// @author Gabriel Dibble <gdibble@gmail.com>\n\n\n    /// @dev STAR STRUCTURE:\n    /// @return {Object}\n    struct Star {\n        string name;\n        string dec;\n        string mag;\n        string ra;\n        string story;\n        bytes32 unique_hash;\n    }\n\n\n    /// @dev INTERNALS:\n    mapping(uint256 => Star) public tokenIdToStarInfo;\n    mapping(uint256 => uint256) public starsForSale;\n    mapping(bytes32 => bool) public notary;\n    string public starName;\n    string public starOwner;\n    uint256 tokenId;\n\n    /// @notice isBlank (helper)\n    /// @dev Check if value is blank\n    /// @param _value String to check\n    /// @return {Boolean}\n    function isBlank(string _value) internal pure returns (bool) {\n        return keccak256(abi.encodePacked(\"\")) != keccak256(abi.encodePacked(_value));\n    }\n\n\n    /// @dev EXECUTABLE UNITS:\n\n    /// @notice checkIfStarExist\n    /// @dev Check if a star exists in the notary\n    /// @param _dec Declination\n    /// @param _mag Appareng magnitude\n    /// @param _ra Right Ascension\n    /// @return {Boolean}\n    function checkIfStarExist(string _dec, string _mag, string _ra) public view returns (bool) {\n        require(isBlank(_dec), \"Invalid argument: dec required\");\n        require(isBlank(_mag), \"Invalid argument: mag required\");\n        require(isBlank(_ra), \"Invalid argument: ra required\");\n\n        return notary[keccak256(abi.encodePacked(_dec, _mag, _ra))];\n    }\n\n\n    /// @notice createStar\n    /// @dev Create a star in the notary\n    /// @param _name Star name\n    /// @param _dec Declination\n    /// @param _mag Apparent magnitude\n    /// @param _ra Right Ascension\n    /// @param _story Star story\n    function createStar(string _name, string _dec, string _mag, string _ra, string _story) public {\n        require(isBlank(_name), \"Invalid argument: `name` required\");\n        require(isBlank(_dec), \"Invalid argument: `dec` required\");\n        require(isBlank(_mag), \"Invalid argument: `mag` required\");\n        require(isBlank(_ra), \"Invalid argument: `ra` required\");\n        require(isBlank(_story), \"Invalid argument: `story` required\");\n\n        bytes32 starHash = keccak256(abi.encodePacked(_dec,_mag,_ra));\n        require(!notary[starHash], string(abi.encodePacked(_name, \" has already been created\")));\n\n        tokenId++;                                                              // done w/ validity.\n        Star memory newStar = Star(_name, _dec, _mag, _ra, _story, starHash);\n\n        tokenIdToStarInfo[tokenId] = newStar;\n        notary[starHash] = true;\n\n        mint(tokenId);\n    }\n\n\n    /// @notice putStarUpForSale\n    /// @dev Put a star up for sale\n    /// @param _tokenId Star token id\n    /// @param _price Price to be paid for star\n    function putStarUpForSale(uint256 _tokenId, uint256 _price) public {\n        require(this.ownerOf(_tokenId) == msg.sender, \"Invalid ownership\");\n        require(_price > 0, \"Invalid star price\");\n\n        starsForSale[_tokenId] = _price;\n    }\n\n\n    /// @notice mint\n    /// @dev Mint a new star token\n    /// @param _tokenId Star token id\n    function mint(uint256 _tokenId) public {\n        super._mint(msg.sender, _tokenId);  // User `_mint` via ERC721\n    }\n\n\n    /// @notice buyStar\n    /// @dev Buy a star\n    /// @param _tokenId Star token id\n    function buyStar(uint256 _tokenId) public payable {\n        require(starsForSale[_tokenId] > 0, \"Invalid tokenId\");\n\n        uint256 starCost = starsForSale[_tokenId];\n        address starOwner = this.ownerOf(_tokenId);\n        require(msg.value >= starCost, \"Insufficient ether to purchase star\");\n\n        _removeTokenFrom(starOwner, _tokenId);\n        _addTokenTo(msg.sender, _tokenId);\n\n        starOwner.transfer(starCost);\n\n        if (msg.value > starCost)\n            msg.sender.transfer(msg.value - starCost);\n    }\n\n\n    /// @notice getStarSalePrice\n    /// @dev Get the sale price of a star\n    /// @param _tokenId Star token id\n    /// @return {string}\n    function getStarSalePrice(uint256 _tokenId) public view returns (uint256) {\n        return starsForSale[_tokenId];\n    }\n\n\n    /// @notice allStarsForSale\n    /// @dev Get all stars for sale\n    /// @return {Array}\n    function allStarsForSale() public view returns(uint256[]) {\n        uint256[] starTokenId;\n        uint i = 1;\n        while (isBlank(tokenIdToStarInfo[i].story)) {\n            if (starsForSale[i] > 0)\n                starTokenId.push(i);\n            i++;\n        }\n\n        return starTokenId;\n    }\n\n\n    /// @notice tokenIdToStarInfo\n    /// @dev Get star info\n    /// @param _tokenId Star token id\n    /// @return {Array}\n    function tokenIdToStarInfo(uint256 _tokenId) public view returns(string, string, string, string, string) {\n        Star memory star = tokenIdToStarInfo[_tokenId];\n\n        return(star.name, star.story, star.ra, star.dec, star.mag);\n    }\n}\n",
  "sourcePath": "/Users/gdibble/Desktop/p5/smart_contracts/contracts/StarNotary.sol",
  "compiler": {
    "name": "solc",
    "version": "0.4.24+commit.e67f0147.Emscripten.clang"
  },
  "schemaVersion": "2.0.1",
  "updatedAt": "2018-11-11T15:23:25.993Z"
}